{
  "_format": "hh-sol-artifact-1",
  "contractName": "OurNFT",
  "sourceName": "contracts/OurNFT.sol",
  "abi": [
    {
      "inputs": [],
      "stateMutability": "nonpayable",
      "type": "constructor"
    },
    {
      "inputs": [
        {
          "internalType": "address",
          "name": "sender",
          "type": "address"
        },
        {
          "internalType": "uint256",
          "name": "tokenId",
          "type": "uint256"
        },
        {
          "internalType": "address",
          "name": "owner",
          "type": "address"
        }
      ],
      "name": "ERC721IncorrectOwner",
      "type": "error"
    },
    {
      "inputs": [
        {
          "internalType": "address",
          "name": "operator",
          "type": "address"
        },
        {
          "internalType": "uint256",
          "name": "tokenId",
          "type": "uint256"
        }
      ],
      "name": "ERC721InsufficientApproval",
      "type": "error"
    },
    {
      "inputs": [
        {
          "internalType": "address",
          "name": "approver",
          "type": "address"
        }
      ],
      "name": "ERC721InvalidApprover",
      "type": "error"
    },
    {
      "inputs": [
        {
          "internalType": "address",
          "name": "operator",
          "type": "address"
        }
      ],
      "name": "ERC721InvalidOperator",
      "type": "error"
    },
    {
      "inputs": [
        {
          "internalType": "address",
          "name": "owner",
          "type": "address"
        }
      ],
      "name": "ERC721InvalidOwner",
      "type": "error"
    },
    {
      "inputs": [
        {
          "internalType": "address",
          "name": "receiver",
          "type": "address"
        }
      ],
      "name": "ERC721InvalidReceiver",
      "type": "error"
    },
    {
      "inputs": [
        {
          "internalType": "address",
          "name": "sender",
          "type": "address"
        }
      ],
      "name": "ERC721InvalidSender",
      "type": "error"
    },
    {
      "inputs": [
        {
          "internalType": "uint256",
          "name": "tokenId",
          "type": "uint256"
        }
      ],
      "name": "ERC721NonexistentToken",
      "type": "error"
    },
    {
      "anonymous": false,
      "inputs": [
        {
          "indexed": true,
          "internalType": "address",
          "name": "owner",
          "type": "address"
        },
        {
          "indexed": true,
          "internalType": "address",
          "name": "approved",
          "type": "address"
        },
        {
          "indexed": true,
          "internalType": "uint256",
          "name": "tokenId",
          "type": "uint256"
        }
      ],
      "name": "Approval",
      "type": "event"
    },
    {
      "anonymous": false,
      "inputs": [
        {
          "indexed": true,
          "internalType": "address",
          "name": "owner",
          "type": "address"
        },
        {
          "indexed": true,
          "internalType": "address",
          "name": "operator",
          "type": "address"
        },
        {
          "indexed": false,
          "internalType": "bool",
          "name": "approved",
          "type": "bool"
        }
      ],
      "name": "ApprovalForAll",
      "type": "event"
    },
    {
      "anonymous": false,
      "inputs": [
        {
          "indexed": true,
          "internalType": "uint256",
          "name": "tokenId",
          "type": "uint256"
        }
      ],
      "name": "G10Minted",
      "type": "event"
    },
    {
      "anonymous": false,
      "inputs": [
        {
          "indexed": true,
          "internalType": "address",
          "name": "from",
          "type": "address"
        },
        {
          "indexed": true,
          "internalType": "address",
          "name": "to",
          "type": "address"
        },
        {
          "indexed": true,
          "internalType": "uint256",
          "name": "tokenId",
          "type": "uint256"
        }
      ],
      "name": "Transfer",
      "type": "event"
    },
    {
      "inputs": [],
      "name": "TOKEN_URI",
      "outputs": [
        {
          "internalType": "string",
          "name": "",
          "type": "string"
        }
      ],
      "stateMutability": "view",
      "type": "function"
    },
    {
      "inputs": [
        {
          "internalType": "address",
          "name": "to",
          "type": "address"
        },
        {
          "internalType": "uint256",
          "name": "tokenId",
          "type": "uint256"
        }
      ],
      "name": "approve",
      "outputs": [],
      "stateMutability": "nonpayable",
      "type": "function"
    },
    {
      "inputs": [
        {
          "internalType": "address",
          "name": "owner",
          "type": "address"
        }
      ],
      "name": "balanceOf",
      "outputs": [
        {
          "internalType": "uint256",
          "name": "",
          "type": "uint256"
        }
      ],
      "stateMutability": "view",
      "type": "function"
    },
    {
      "inputs": [
        {
          "internalType": "uint256",
          "name": "tokenId",
          "type": "uint256"
        }
      ],
      "name": "getApproved",
      "outputs": [
        {
          "internalType": "address",
          "name": "",
          "type": "address"
        }
      ],
      "stateMutability": "view",
      "type": "function"
    },
    {
      "inputs": [],
      "name": "getTokenCounter",
      "outputs": [
        {
          "internalType": "uint256",
          "name": "",
          "type": "uint256"
        }
      ],
      "stateMutability": "view",
      "type": "function"
    },
    {
      "inputs": [
        {
          "internalType": "address",
          "name": "owner",
          "type": "address"
        },
        {
          "internalType": "address",
          "name": "operator",
          "type": "address"
        }
      ],
      "name": "isApprovedForAll",
      "outputs": [
        {
          "internalType": "bool",
          "name": "",
          "type": "bool"
        }
      ],
      "stateMutability": "view",
      "type": "function"
    },
    {
      "inputs": [],
      "name": "mintNft",
      "outputs": [],
      "stateMutability": "nonpayable",
      "type": "function"
    },
    {
      "inputs": [],
      "name": "name",
      "outputs": [
        {
          "internalType": "string",
          "name": "",
          "type": "string"
        }
      ],
      "stateMutability": "view",
      "type": "function"
    },
    {
      "inputs": [
        {
          "internalType": "uint256",
          "name": "tokenId",
          "type": "uint256"
        }
      ],
      "name": "ownerOf",
      "outputs": [
        {
          "internalType": "address",
          "name": "",
          "type": "address"
        }
      ],
      "stateMutability": "view",
      "type": "function"
    },
    {
      "inputs": [
        {
          "internalType": "address",
          "name": "from",
          "type": "address"
        },
        {
          "internalType": "address",
          "name": "to",
          "type": "address"
        },
        {
          "internalType": "uint256",
          "name": "tokenId",
          "type": "uint256"
        }
      ],
      "name": "safeTransferFrom",
      "outputs": [],
      "stateMutability": "nonpayable",
      "type": "function"
    },
    {
      "inputs": [
        {
          "internalType": "address",
          "name": "from",
          "type": "address"
        },
        {
          "internalType": "address",
          "name": "to",
          "type": "address"
        },
        {
          "internalType": "uint256",
          "name": "tokenId",
          "type": "uint256"
        },
        {
          "internalType": "bytes",
          "name": "data",
          "type": "bytes"
        }
      ],
      "name": "safeTransferFrom",
      "outputs": [],
      "stateMutability": "nonpayable",
      "type": "function"
    },
    {
      "inputs": [
        {
          "internalType": "address",
          "name": "operator",
          "type": "address"
        },
        {
          "internalType": "bool",
          "name": "approved",
          "type": "bool"
        }
      ],
      "name": "setApprovalForAll",
      "outputs": [],
      "stateMutability": "nonpayable",
      "type": "function"
    },
    {
      "inputs": [
        {
          "internalType": "bytes4",
          "name": "interfaceId",
          "type": "bytes4"
        }
      ],
      "name": "supportsInterface",
      "outputs": [
        {
          "internalType": "bool",
          "name": "",
          "type": "bool"
        }
      ],
      "stateMutability": "view",
      "type": "function"
    },
    {
      "inputs": [],
      "name": "symbol",
      "outputs": [
        {
          "internalType": "string",
          "name": "",
          "type": "string"
        }
      ],
      "stateMutability": "view",
      "type": "function"
    },
    {
      "inputs": [
        {
          "internalType": "uint256",
          "name": "tokenId",
          "type": "uint256"
        }
      ],
      "name": "tokenURI",
      "outputs": [
        {
          "internalType": "string",
          "name": "",
          "type": "string"
        }
      ],
      "stateMutability": "view",
      "type": "function"
    },
    {
      "inputs": [
        {
          "internalType": "address",
          "name": "from",
          "type": "address"
        },
        {
          "internalType": "address",
          "name": "to",
          "type": "address"
        },
        {
          "internalType": "uint256",
          "name": "tokenId",
          "type": "uint256"
        }
      ],
      "name": "transferFrom",
      "outputs": [],
      "stateMutability": "nonpayable",
      "type": "function"
    }
  ],
  "bytecode": "0x60806040523480156200001157600080fd5b5060405180604001604052806007815260200166047726f757031360cc1b8152506040518060400160405280600381526020016204731360ec1b81525081600090816200005f919062000123565b5060016200006e828262000123565b5050600060065550620001ef565b634e487b7160e01b600052604160045260246000fd5b600181811c90821680620000a757607f821691505b602082108103620000c857634e487b7160e01b600052602260045260246000fd5b50919050565b601f8211156200011e576000816000526020600020601f850160051c81016020861015620000f95750805b601f850160051c820191505b818110156200011a5782815560010162000105565b5050505b505050565b81516001600160401b038111156200013f576200013f6200007c565b620001578162000150845462000092565b84620000ce565b602080601f8311600181146200018f5760008415620001765750858301515b600019600386901b1c1916600185901b1785556200011a565b600085815260208120601f198616915b82811015620001c0578886015182559484019460019091019084016200019f565b5085821015620001df5787850151600019600388901b60f8161c191681555b5050505050600190811b01905550565b610fde80620001ff6000396000f3fe608060405234801561001057600080fd5b50600436106101005760003560e01c806370a0823111610097578063b88d4fde11610066578063b88d4fde14610211578063c2229fea14610224578063c87b56dd1461022c578063e985e9c51461023f57600080fd5b806370a08231146101cd57806378ce9035146101e057806395d89b41146101f6578063a22cb465146101fe57600080fd5b806323b872dd116100d357806323b872dd1461018257806342842e0e146101955780636352211e146101a85780636e02007d146101bb57600080fd5b806301ffc9a71461010557806306fdde031461012d578063081812fc14610142578063095ea7b31461016d575b600080fd5b610118610113366004610c60565b61027b565b60405190151581526020015b60405180910390f35b610135610318565b6040516101249190610cca565b610155610150366004610cdd565b6103aa565b6040516001600160a01b039091168152602001610124565b61018061017b366004610d12565b6103d3565b005b610180610190366004610d3c565b6103e2565b6101806101a3366004610d3c565b61048b565b6101556101b6366004610cdd565b6104ab565b6006545b604051908152602001610124565b6101bf6101db366004610d78565b6104b6565b6101356040518060200160405280600081525081565b610135610517565b61018061020c366004610d93565b610526565b61018061021f366004610de5565b610531565b610180610548565b61013561023a366004610cdd565b610593565b61011861024d366004610ec1565b6001600160a01b03918216600090815260056020908152604080832093909416825291909152205460ff1690565b60006001600160e01b031982167f80ac58cd0000000000000000000000000000000000000000000000000000000014806102de57506001600160e01b031982167f5b5e139f00000000000000000000000000000000000000000000000000000000145b8061031257507f01ffc9a7000000000000000000000000000000000000000000000000000000006001600160e01b03198316145b92915050565b60606000805461032790610ef4565b80601f016020809104026020016040519081016040528092919081815260200182805461035390610ef4565b80156103a05780601f10610375576101008083540402835291602001916103a0565b820191906000526020600020905b81548152906001019060200180831161038357829003601f168201915b5050505050905090565b60006103b58261064e565b506000828152600460205260409020546001600160a01b0316610312565b6103de828233610687565b5050565b6001600160a01b03821661041157604051633250574960e11b8152600060048201526024015b60405180910390fd5b600061041e838333610694565b9050836001600160a01b0316816001600160a01b031614610485576040517f64283d7b0000000000000000000000000000000000000000000000000000000081526001600160a01b0380861660048301526024820184905282166044820152606401610408565b50505050565b6104a683838360405180602001604052806000815250610531565b505050565b60006103128261064e565b60006001600160a01b0382166104fb576040517f89c62b6400000000000000000000000000000000000000000000000000000000815260006004820152602401610408565b506001600160a01b031660009081526003602052604090205490565b60606001805461032790610ef4565b6103de33838361079a565b61053c8484846103e2565b61048584848484610852565b6105543360065461097b565b6006546040517f6aa4a03387dc8198e91e93089b87171cb436f0286a7f467076a6cdbbdf2d386790600090a260065461058e906001610f2e565b600655565b6000818152600260205260409020546060906001600160a01b031661063a576040517f08c379a000000000000000000000000000000000000000000000000000000000815260206004820152602f60248201527f4552433732314d657461646174613a2055524920717565727920666f72206e6f60448201527f6e6578697374656e7420746f6b656e00000000000000000000000000000000006064820152608401610408565b505060408051602081019091526000815290565b6000818152600260205260408120546001600160a01b03168061031257604051637e27328960e01b815260048101849052602401610408565b6104a683838360016109f9565b6000828152600260205260408120546001600160a01b03908116908316156106c1576106c1818486610b44565b6001600160a01b038116156106ff576106de6000856000806109f9565b6001600160a01b038116600090815260036020526040902080546000190190555b6001600160a01b0385161561072e576001600160a01b0385166000908152600360205260409020805460010190555b600084815260026020526040808220805473ffffffffffffffffffffffffffffffffffffffff19166001600160a01b0389811691821790925591518793918516917fddf252ad1be2c89b69c2b068fc378daa952ba7f163c4a11628f55a4df523b3ef91a4949350505050565b6001600160a01b0382166107e5576040517f5b08ba180000000000000000000000000000000000000000000000000000000081526001600160a01b0383166004820152602401610408565b6001600160a01b03838116600081815260056020908152604080832094871680845294825291829020805460ff191686151590811790915591519182527f17307eab39ab6107e8899845ad3d59bd9653f200f220920489ca2b5937696c31910160405180910390a3505050565b6001600160a01b0383163b1561048557604051630a85bd0160e11b81526001600160a01b0384169063150b7a0290610894903390889087908790600401610f4f565b6020604051808303816000875af19250505080156108cf575060408051601f3d908101601f191682019092526108cc91810190610f8b565b60015b610938573d8080156108fd576040519150601f19603f3d011682016040523d82523d6000602084013e610902565b606091505b50805160000361093057604051633250574960e11b81526001600160a01b0385166004820152602401610408565b805181602001fd5b6001600160e01b03198116630a85bd0160e11b1461097457604051633250574960e11b81526001600160a01b0385166004820152602401610408565b5050505050565b6001600160a01b0382166109a557604051633250574960e11b815260006004820152602401610408565b60006109b383836000610694565b90506001600160a01b038116156104a6576040517f73c6ac6e00000000000000000000000000000000000000000000000000000000815260006004820152602401610408565b8080610a0d57506001600160a01b03821615155b15610b07576000610a1d8461064e565b90506001600160a01b03831615801590610a495750826001600160a01b0316816001600160a01b031614155b8015610a7b57506001600160a01b0380821660009081526005602090815260408083209387168352929052205460ff16155b15610abd576040517fa9fbf51f0000000000000000000000000000000000000000000000000000000081526001600160a01b0384166004820152602401610408565b8115610b055783856001600160a01b0316826001600160a01b03167f8c5be1e5ebec7d5bd14f71427d1e84f3dd0314c0f7b2291e5b200ac8c7c3b92560405160405180910390a45b505b50506000908152600460205260409020805473ffffffffffffffffffffffffffffffffffffffff19166001600160a01b0392909216919091179055565b610b4f838383610bc1565b6104a6576001600160a01b038316610b7d57604051637e27328960e01b815260048101829052602401610408565b6040517f177e802f0000000000000000000000000000000000000000000000000000000081526001600160a01b038316600482015260248101829052604401610408565b60006001600160a01b03831615801590610c3f5750826001600160a01b0316846001600160a01b03161480610c1b57506001600160a01b0380851660009081526005602090815260408083209387168352929052205460ff165b80610c3f57506000828152600460205260409020546001600160a01b038481169116145b949350505050565b6001600160e01b031981168114610c5d57600080fd5b50565b600060208284031215610c7257600080fd5b8135610c7d81610c47565b9392505050565b6000815180845260005b81811015610caa57602081850181015186830182015201610c8e565b506000602082860101526020601f19601f83011685010191505092915050565b602081526000610c7d6020830184610c84565b600060208284031215610cef57600080fd5b5035919050565b80356001600160a01b0381168114610d0d57600080fd5b919050565b60008060408385031215610d2557600080fd5b610d2e83610cf6565b946020939093013593505050565b600080600060608486031215610d5157600080fd5b610d5a84610cf6565b9250610d6860208501610cf6565b9150604084013590509250925092565b600060208284031215610d8a57600080fd5b610c7d82610cf6565b60008060408385031215610da657600080fd5b610daf83610cf6565b915060208301358015158114610dc457600080fd5b809150509250929050565b634e487b7160e01b600052604160045260246000fd5b60008060008060808587031215610dfb57600080fd5b610e0485610cf6565b9350610e1260208601610cf6565b925060408501359150606085013567ffffffffffffffff80821115610e3657600080fd5b818701915087601f830112610e4a57600080fd5b813581811115610e5c57610e5c610dcf565b604051601f8201601f19908116603f01168101908382118183101715610e8457610e84610dcf565b816040528281528a6020848701011115610e9d57600080fd5b82602086016020830137600060208483010152809550505050505092959194509250565b60008060408385031215610ed457600080fd5b610edd83610cf6565b9150610eeb60208401610cf6565b90509250929050565b600181811c90821680610f0857607f821691505b602082108103610f2857634e487b7160e01b600052602260045260246000fd5b50919050565b8082018082111561031257634e487b7160e01b600052601160045260246000fd5b60006001600160a01b03808716835280861660208401525083604083015260806060830152610f816080830184610c84565b9695505050505050565b600060208284031215610f9d57600080fd5b8151610c7d81610c4756fea26469706673582212208e58c6b19e3552b76e2db8f942a9eff6cf1c54b668e40da60e0b418c9009ad9164736f6c63430008180033",
  "linkReferences": {},
  "deployedLinkReferences": {}
}